:020000040800F2
:10000000300C00209D320008ED320008ED3200086F
:1000100000000000000000000000000000000000E0
:10002000000000000000000000000000ED320008A9
:100030000000000000000000ED320008211B000855
:10004000ED320008ED320008ED320008ED32000814
:10005000ED3200082F1B00084F1B0008511B000841
:1000600000000000ED320008ED320008ED3200081B
:10007000ED320008ED320008ED320008000000000B
:10008000531B0008ED32000800000000ED320008AC
:10009000ED320008ED320008ED320008ED320008C4
:1000A000ED320008ED320008ED320008ED320008B4
:1000B000ED32000800000000000000000000000019
:0C00C000ED32000800000000ED320008E6
:1000CC0010B540F20804C2F20004237863B940F280
:1000DC000003C0F200032BB143F26430C0F6000001
:1000EC0000E000BF0123237010BDC04640F20003A6
:1000FC00C0F2000310B54BB140F20C0143F2643076
:10010C00C2F20001C0F6000000E000BF10BDC04606
:10011C000023C25C0133002AFBD1581E704741F208
:10012C000003C4F202031968802252020A431A60C7
:10013C000022013241F20003C4F202031B689B034C
:10014C0003D44FF6FF739A42F3D141F20003C4F289
:10015C0002031B689B0300D4FEE742F20002C4F2C8
:10016C000202136807218B4305390B43136041F2DC
:10017C000403C4F202031A681A601A681A601A6837
:10018C001A601A684FF6FF71C7F2C2710A401A6002
:10019C001968E82252030A431A6041F20003C4F2C0
:1001AC0002031968802252040A431A6041F20003C8
:1001BC00C4F202031B689B01F8D541F20403C4F29C
:1001CC0002031A6803218A431A601A6801390A4328
:1001DC001A6041F20403C4F202031B681B07F8D532
:1001EC00704710B5FFF79BFF10BD000010B541F232
:1001FC000003C4F202031A6801210A431A6041F297
:10020C000003C4F202031B689B07F8D541F20403F8
:10021C00C4F202031A680C21C0F6FF010A401A60EE
:10022C001A684FF6FF71C7F2C2710A401A6041F2A8
:10023C000003C4F202031A684FF6FF71CFF6F261A5
:10024C000A401A6041F22C03C4F202031A680F210F
:10025C008A431A6041F23003C4F202031A6810494F
:10026C000A401A601A680F490A401A601A6852004C
:10027C0052081A6041F23403C4F202031A680121D5
:10028C008A431A6041F20803C4F2020300221A6086
:10029C00FFF7A7FF80200021000500F033FC10BD04
:1002AC00FCFEFFFFFFFFFEFF10B540F2093000F02F
:1002BC004FFC40F2093000F059FC10BD42F20843EB
:1002CC00C4F201031B68DB0707D442F20843C4F2F3
:1002DC0001031A6801210A431A60704742F208436D
:1002EC00C4F201031A6808210A431A6042F2084357
:1002FC00C4F201031B681B07F8D442F20843C4F292
:10030C0001031A6804210A431A6042F20843C4F23A
:10031C0001031B685B07F8D47047000001B3C305E9
:10032C0008D542F20443C4F201031A6840F20011EA
:10033C000A431A60430508D542F20443C4F2010390
:10034C001A6840F200410A431A60830707D542F24B
:10035C000843C4F201031A6802210A431A60704769
:10036C00C30507D542F20443C4F201031A680C49D1
:10037C000A401A60430507D542F20443C4F2010354
:10038C001A6808490A401A608307E8D542F2084304
:10039C00C4F201031A6802218A431A60DFE7C046DF
:1003AC00FFFEFFFFFFFBFFFF48B142F20843C4F220
:1003BC0001031A6840F600010A431A60704742F2C2
:1003CC000843C4F201031A6801490A401A60F5E7B0
:1003DC00FFF7FFFF012802D0022811D0704742F22C
:1003EC002C43C4F201031A680E4802401A601A68C2
:1003FC0001390905F0200004014011431960EDE7B3
:10040C0042F23843C4F201031A68074802401A60EA
:10041C001A6801390905C020800301401143196095
:10042C00DCE7C046FFFF0FFFFFFFCFFF30B505280D
:10043C001DD842F23444C4F2010425688300181814
:10044C001F2383409D430B0083402B4323600929CA
:10045C0031D842F21040C4F2010004684B00591824
:10046C0007238B409C438A402243026030BD0B28FB
:10047C000FD842F23044C4F20104256883001818E6
:10048C001E381F2383409D430B0083402B43236066
:10049C00DDE70F28DBD842F22C44C4F201042568B6
:1004AC00830018183C381F2383409D430B00834066
:1004BC002B432360CBE71229D8D842F20C40C4F26C
:1004CC00010004684B0059181E3907238B409C43CC
:1004DC008A4022430260C9E7B1B1C30708D542F292
:1004EC000843C4F201031968802252030A431A60BC
:1004FC00830708D542F20843C4F201031A6848F294
:10050C0000010A431A607047C30707D542F208433B
:10051C00C4F201031A6807490A401A608307F2D52E
:10052C0042F20843C4F201031A6803490A401A60F4
:10053C00E9E7C046FFFFEFFFFF7FFFFF012802D076
:10054C0002280CD0704742F20843C4F201031A6827
:10055C00094802401A601A6811431960F2E742F226
:10056C000843C4F201031A68044802401A601A686E
:10057C0011431960E6E7C046FFFFF1FFFF8FFFFF55
:10058C00C30708D542F20843C4F20103196880225C
:10059C00D2030A431A60830708D542F20843C4F217
:1005AC0001031968802292030A431A60704742F2D1
:1005BC004C43C4F20103186880B2704742F2004306
:1005CC00C4F201031B68184201D1002070470120BE
:1005DC00FCE742F20043C4F201031A6882431A603A
:1005EC00704730B540F20043C4F201031C68C543A8
:1005FC0084431C6040F20443C4F201031C6884432E
:10060C001C6040F20843C4F201031C6884431C6064
:10061C0040F20C43C4F201031C6884431C6039B1E2
:10062C0001290DD0012A22D0022A2FD082B130BD4F
:10063C0040F20043C4F20103196801431960F1E769
:10064C0040F20443C4F20103196801431960E9E75D
:10065C0040F20843C4F201031A681043186040F2D8
:10066C000C43C4F201031A6815401D60DFE740F229
:10067C000843C4F201031A6815401D6040F20C4394
:10068C00C4F201031A6810431860D0E740F2084323
:10069C00C4F201031A6802431A6040F20C43C4F21C
:1006AC0001031A6810431860C1E740F20043C4F21A
:1006BC0001031A6802431A60704740F21443C4F2F3
:1006CC0001031B68184201D0012070470020FCE791
:1006DC0040F21443C4F201031860704743F2000364
:1006EC00C4F2000345F255521A60704743F20003FE
:1006FC00C4F200034CF6CC421A60704743F200037C
:10070C00C4F200034AF6AA221A60704710B543F2ED
:10071C000003C4F2000345F255521A604FF6FF7203
:10072C00C0F20F0243F20C03C4F200031C68012355
:10073C002340013A0AB1002BF4D12BBB43F2040342
:10074C00C4F2000319604FF6FF72C0F20F0243F2BD
:10075C000C03C4F20003196802230B40013A0AB1DE
:10076C00002BF4D193B940F6FF73184043F2080301
:10077C00C4F20003186043F20003C4F200034AF60B
:10078C00AA221A60012010BD0020FCE70020FAE725
:10079C00F0B5CE46474680B5844691461800634670
:1007AC001F68DE68002401E00134A4B20F2C0FD8BE
:1007BC000125A5402842F7D0630003259D40AF4397
:1007CC000A009A401743AE434A469A401643EBE759
:1007DC0063461F60DE60C0BCB946B046F0BD70B564
:1007EC00012905D04168994341608568002105E0E5
:1007FC00416819434160F8E7013189B20F290BD8E0
:10080C0001248C402342F7D04E000324B440A5436E
:10081C001400B4402543EFE7856070BD81617047DB
:10082C000AB1816170478162FCE70369194201D00A
:10083C00012070470020FCE7F0B5066A456A0023EA
:10084C0001E001339BB2072B0BD801249C402242C0
:10085C00F7D09F000F24BC40A6430C00BC4026439D
:10086C00EFE7082301E001339BB20F2B0DD80124D5
:10087C009C402242F7D01C00083CA4000F27A74044
:10088C00BD430F00A7403D43EDE706624562F0BD56
:10089C00F8B504000D001600022000F031FB44F204
:1008AC004023C0F20F03B0FBF3F34DF6BF52C0F27E
:1008BC00917290421DD8190062687F27BA430A438F
:1008CC00626048F2A062C0F2010295421AD801336C
:1008DC007E2B10D97F2323626D00B0FBF5F003282B
:1008EC0000D80420E36940F6FF7528401843E06106
:1008FC00F8BD7F21E0E7022B02D802232362EBE74D
:10090C002362E9E741F68023C0F206039D422CD80E
:10091C008B0059180B01591A890040F2E833B1FBCE
:10092C00F3F101312162A6B969004D19B0FBF5F064
:10093C00E369234A1340E361030501D10123184302
:10094C00E36948F200021343E361E5692843E0617F
:10095C00CEE7A9004D19A9006D18B0FBF5F0E369BD
:10096C0044F200021343E361E6E70B01591AC90094
:10097C0040F2E833B1FBF3F1013121629EB9690019
:10098C004D19B0FBF5F0E3690D4A1340E361E369DF
:10099C0048F200021343E361E5692843E0619034B7
:1009AC0001232360A4E7A9004D19A9006D18B0FB21
:1009BC00F5F0E36944F200021343E361E7E7C04654
:1009CC00FFBFFFFF30B504680225AC430C43046045
:1009DC0040F2FF3119401143816030BD012904D030
:1009EC000368054A134003607047036840F20042F5
:1009FC0013430360F8E7C046FFFBFFFF931C03D0D3
:100A0C00012319430161704701239943FAE70368F5
:100A1C000122134303607047036840F20012134332
:100A2C0003607047036840F2002213430360704771
:100A3C00016170470069C0B270478B091B181B68B5
:100A4C001F221140CB40DB0701D50120704700204D
:100A5C00FCE740F20153994209D08B09181803683E
:100A6C001F2211401E3A8A4093430360704743692A
:100A7C008369FBE7F0B5CE46474680B543B2002B01
:100A8C0027DB9A084EF20017CEF20007C032920014
:100A9C00D45903250540ED0040F2FF094E46AE4007
:100AAC00B443260089014C460C40AC403443D4512D
:100ABC00002B0ADB1F2210405B091E3A82404EF2CB
:100ACC000011CEF200019B005A50C0BCB946B04692
:100ADC00F0BD0F220240083A9208063292004EF600
:100AEC00005CCEF2000C6244566803250540ED0014
:100AFC00FF242700AF40BE4389010C40AC40344377
:100B0C005460D5E74FF68073C1F6FF73194001436B
:100B1C004EF60053CEF200039960BFF34F8F70472F
:100B2C0047F20003C4F200031A6840F200110A43B2
:100B3C001A607047830941F2000CC4F2020C634442
:100B4C001A681F2108401E3981400A431A607047F9
:100B5C00830941F2000CC4F2020C63441A681F2191
:100B6C0008401E3981400A431A607047830941F2DC
:100B7C00000CC4F2020C63441A681F2108401E3991
:100B8C0081408A431A60704741F22003C4F2020389
:100B9C001968802252020A431A60704741F22003FE
:100BAC00C4F202031A6802490A401A607047C04630
:100BBC00FFFFFEFF41F20403C4F202031A686A4904
:100BCC000A401A6041F23003C4F202031A684FF66D
:100BDC00FF61C7F6FE710A401A6009280FD8800021
:100BEC00624B1B589F4641F23003C4F202031A6851
:100BFC005F490A401A601A685E490A401A607047D9
:100C0C0041F23003C4F202031968802252020A43F3
:100C1C001A601A6857490A401A60F0E741F2040357
:100C2C00C4F202031A681A6041F23003C4F20203E0
:100C3C001A6840F200110A431A60E0E741F204031B
:100C4C00C4F202031A681A6041F23003C4F20203C0
:100C5C001968802212060A431A601A6840F20011C1
:100C6C000A431A60CBE741F20403C4F202031A6888
:100C7C0044F200010A431A6041F23003C4F2020349
:100C8C001A6840F200110A431A60B8E741F20403F3
:100C9C00C4F202031A6844F200010A431A6041F2DA
:100CAC003003C4F202031968802212060A431A6048
:100CBC001A6840F200110A431A60A0E741F20403DB
:100CCC00C4F202031A6848F200010A431A6041F2A6
:100CDC003003C4F202031A6840F200110A431A608E
:100CEC008DE741F20403C4F202031A6848F20001D2
:100CFC000A431A6041F23003C4F2020319688022DD
:100D0C0012060A431A601A6840F200110A431A606C
:100D1C0075E741F20403C4F202031A684CF20001B5
:100D2C000A431A6041F23003C4F202031A6840F21B
:100D3C0000110A431A6062E741F20403C4F2020391
:100D4C001A684CF200010A431A6041F23003C4F2F3
:100D5C0002031968802212060A431A601A6840F2CC
:100D6C0000110A431A604AE7FF3FFFFF9433000863
:100D7C00FFFFFEFFFFFEFFFF41F22003C4F2020360
:100D8C001968034A114019601A6802431A607047C7
:100D9C00FFFCFFFF830941F2000CC4F2020C634418
:100DAC001B681F221040C340DB0701D50120704790
:100DBC000020FCE710B540F6000398423ED00CD85A
:100DCC00102827D0182802D10020002479E010B96F
:100DDC000020002439E0002010BD40F6001398429A
:100DEC0068D040F60053984202D1002000243DE028
:100DFC000020F1E71120FFF7CDFF013418B94FF6B1
:100E0C00FF739C42F6D11120FFF7C4FF0028E3D0FA
:100E1C000120E1E700200024F0E740F60100FFF795
:100E2C00B9FF013410B92E4B9C42F6D140F60100AB
:100E3C00FFF7B0FF0028CFD00120CDE70020002421
:100E4C00F0E70120FFF7A6FF013418B940F2005378
:100E5C009C42F6D10120FFF79DFF0028BCD0012059
:100E6C00BAE740F60150FFF795FF013428B94FF669
:100E7C00FF73C0F20F039C42F3D140F60150FFF711
:100E8C0089FF0028A8D00120A6E740F60110FFF743
:100E9C0081FF013428B94FF6FF73C0F20F039C4257
:100EAC00F3D140F60110FFF775FF002800D193E74E
:100EBC00012091E700200024ECE71920FFF76AFFDE
:100ECC00013428B94FF6FF73C0F20F039C42F4D1E2
:100EDC001920FFF75FFF002800D17DE701207BE799
:100EEC00FFFFFF03830941F2000CC4F2020C6344C0
:100EFC001A681F2108401E3981400A431A60704746
:100F0C0070B588B0020004A943F27C33C0F600032C
:100F1C001C0061CC61C108002168016002A81900A5
:100F2C00103130C930C06946103311CB11C141F2B8
:100F3C000403C4F202031968890803230B40022B33
:100F4C0024D041F20020C0F27A0041F20404C4F231
:100F5C000204216809090F230B4004A9CB5C05008E
:100F6C00DD4023681B0A07210B4002AEF35C2E0008
:100F7C00DE402368DB0A19406B465B5C2900D940D4
:100F8C00052A34D892005D4B9B589F4641F20403CE
:100F9C00C4F202031968890C0F2008401B681B015E
:100FAC0017D5113041F20403C4F202031B68DB03B2
:100FBC0015D541F22C03C4F2020319680F230B4020
:100FCC00013341F20021C0F27A01B1FBF3F3584333
:100FDC00BBE70F2801D00230E4E71020E2E7410123
:100FEC00091A8B015B1ADB0018180002ADE7002010
:100FFC0000E0280008B070BD3000FBE70800F9E7FE
:10100C0041F23003C4F202031B68DB050BD441F23E
:10101C003003C4F202031B68DB0360D449F6807012
:10102C00C0F2D500E6E741F20403C4F202031A68E9
:10103C00920B0323134041F23002C4F202021268F5
:10104C00D20F022B1AD007D86BB1012B02D18AB95F
:10105C008808CFE70020CDE7032B02D1BAB9C80826
:10106C00C8E70020C6E70AB94808C3E70320B5FB68
:10107C00F0F0BFE70520B5FBF0F0BBE71AB906208E
:10108C00B1FBF0F0B6E70720B5FBF0F0B2E70920B2
:10109C00B5FBF0F0AEE741F23003C4F202031B687B
:1010AC009B0721D041F23003C4F202031A680323D8
:1010BC001340012B9ED041F23003C4F202031A6894
:1010CC0003231340022B11D041F23003C4F202036C
:1010DC001A6803231340032B0BD000208AE743F636
:1010EC000070C0F2AB1085E7080083E748F20000FF
:1010FC0080E741F20020C0F27A007BE7BC330008A5
:10110C0042F60C03C4F200031B685B0617D442F6CC
:10111C000C03C4F200031A6880210A431A6044F2DB
:10112C00000242F60C03C4F20003196840230B4082
:10113C00013A0AB1002BF4D01BB9002000E00120C9
:10114C0070470120FCE742F60C03C4F200031A6856
:10115C0080218A431A60704782B048F200030193E1
:10116C0042F60803C4F200031B689B0628D442F61F
:10117C002403C4F20003CA221A60773A1A6042F6BA
:10118C000C03C4F200031A6820218A431A6042F649
:10119C000C03C4F200031B6820221A40019B013B84
:1011AC0001930BB1002AF2D042B9002042F624037D
:1011BC00C4F20003FF221A6002B070470120F5E769
:1011CC000120F9E770B5040003781B04C1784903CA
:1011DC004FF6FF720A4013434178090241F6007240
:1011EC000A40134382783F2515401D4303791B04A5
:1011FC00FC2292031340C26813434179090247F65B
:10120C0000720A40134382797F2616401E4342F631
:10121C002403C4F20003CA221A60773A1A60FFF75B
:10122C006FFF30B942F62403C4F20003FF221A60A8
:10123C0070BD23891B04FE22D2031340618947F63B
:10124C00FF720A40134342F61002C4F2000213600C
:10125C0042F60003C4F200031E6042F60403C4F21B
:10126C0000031D6042F60803C4F200031A68402113
:10127C008A431A601A6821690A431A60FFF763FFF0
:10128C00FFF76AFFCEE770B542F60003C4F2000325
:10129C001D6842F60403C4F200031B6842F61002F8
:1012AC00C4F20002126842F60801C4F200010C6894
:1012BC00190C01701E0A1F21314041703F210E0094
:1012CC001E4086705B0B07263340C3702B0C1940F5
:1012DC000171290A7F23194041712B408371110C34
:1012EC007F230B40038147F6FF711140418180231E
:1012FC00DB031A40C26040232340036170BD00230E
:10130C000360436040F200728260C360436183619A
:10131C007047000030B5046843F240031C4002687B
:10132C0043F640031A4045684FF2FF032B4043F24B
:10133C000005C4F20105A84215D00C6822434C6884
:10134C002243CC6822430C6922434C6922438C69AA
:10135C00224302608A6813434360C369104A1340F6
:10136C00C361012030BD0B6823434A681343CA682C
:10137C0013430A6913434A6913438C691C438A68F3
:10138C0040F200739A4203D040F600739A4205D1A2
:10139C0040F60003134023430360DEE70020E1E73F
:1013AC00FFF7FFFF0368402213430360704743F2CB
:1013BC000003C4F20103984204D04368DB0403D554
:1013CC00017300E0C1607047C160FCE743F20003A9
:1013DC00C4F20103984204D04368DB0404D5007BBB
:1013EC007047C06880B2FBE7C06880B2F8E78368DA
:1013FC0019420DD143F60003C4F20003984209D1FF
:10140C0051B9836841F600021A4207D0002000E06F
:10141C00012070470020FCE70020FAE70120F8E7E4
:10142C0003230B409B000F229A40D243984089081B
:10143C00022923D00CD8B9B101291ED10C23C4F236
:10144C00010319680A401A601A681043186014E006
:10145C00032912D11423C4F2010319680A401A603B
:10146C001A681043186008E00823C4F201031968D5
:10147C000A401A601A681043186070471023C4F2AF
:10148C00010319680A401A601A6810431860F4E7DF
:10149C0010B542F60043C4F2010398424DD042F617
:1014AC000043C4F20103984223D841F20003C4F272
:1014BC00000398424AD042F20003C4F2000398425F
:1014CC0008D140F20840FFF743FB40F20840FFF719
:1014DC004DFB3AE040F20043C4F20003984234D191
:1014EC0040F20140FFF734FB40F20140FFF73EFBB6
:1014FC002BE044F20043C4F2010398422FD044F68F
:10150C000003C4F20103984208D140F21230FFF7F5
:10151C001FFB40F21230FFF729FB16E044F20003E8
:10152C00C4F20103984210D140F21030FFF710FBC7
:10153C0040F21030FFF71AFB07E040F20B30FFF7D8
:10154C0007FB40F20B30FFF711FB10BD40F20440DB
:10155C00FFF7FEFA40F20440FFF708FBF5E740F214
:10156C001130FFF7F5FA40F21130FFF7FFFAECE714
:10157C0000230380438083804FF6FF728260C38018
:10158C00037370470B88836242F60043C4F2010375
:10159C00984205D040F20043C4F2000398420BD1AC
:1015AC00036870229343036003684A881343036003
:1015BC0003688A88134303608B68C36242F6004356
:1015CC00C4F2010398421DD040F20043C4F2000360
:1015DC00984217D042F20003C4F20003984211D093
:1015EC0044F20003C4F2010398420BD044F20043CE
:1015FC00C4F20103984205D044F60003C4F201037F
:10160C00984207D10368134A134003600368CA88E1
:10161C001343036042F60043C4F20103984211D015
:10162C0044F20003C4F2010398420BD044F200438D
:10163C00C4F20103984205D044F60003C4F201033E
:10164C00984201D10B7B036343690122134343612D
:10165C007047C046FFFCFFFF036801221343036081
:10166C007047C3680B43C3607047C3680B40026983
:10167C00114202D01BB9002000E00020704701206D
:10168C00FCE7C94301617047012904D0436C054A4A
:10169C00134043647047436C48F2000213434364A5
:1016AC00F8E7C046FF7FFFFF002303804380838061
:1016BC00C380038143817047022900D1CDE032D829
:1016CC00002958D0012900D0A1E0036A10218B43D6
:1016DC000362836982490B408361036A11880901A3
:1016EC000B430362036A20218B430362036A9188D4
:1016FC0009010B43036242F60043C4F20103984212
:10170C0000D185E044F20003C4F20103984200D0FA
:10171C007DE0436873490B40436043681289920033
:10172C001343436073E0032971D1036A6E490B4084
:10173C000362C3696A490B40C361036A11880903D8
:10174C000B430362036A69490B400362036A918885
:10175C0009030B43036242F60043C4F201039842AF
:10176C0055D1436862490B4043604368128992012A
:10177C00134343604BE0036A01218B43036283698B
:10178C0002318B438361036A11880B430362036A42
:10179C0002218B430362036A91880B43036242F676
:1017AC000043C4F20103984211D044F20003C4F286
:1017BC00010398420BD044F20043C4F20103984257
:1017CC0005D044F60003C4F2010398421FD1036A0A
:1017DC0004218B430362036A51880B430362036A3F
:1017EC0008218B430362036AD1880B43036243686D
:1017FC0040490B404360436811890B434360436885
:10180C003D490B4043604368528913434360704722
:10181C00036A40218B430362036A518809010B431D
:10182C000362036A80218B430362036AD188090136
:10183C000B43036243682B490B4043604368118997
:10184C0089000B43436043682C490B404360436859
:10185C00518989000B43436054E7036A25490B40C7
:10186C000362C3690531FF318B43C361036A11887D
:10187C0009020B430362036A1F490B400362036AAC
:10188C00918809020B43036242F60043C4F2010340
:10189C009842BCD1036A13490B400362036A518816
:1018AC0009020B430362036A14490B400362036A87
:1018BC00D18809020B43036243680B490B40436018
:1018CC004368118909010B434360436807490B4086
:1018DC0043604368528912011343436097E7C04643
:1018EC00FFFCFFFFFFFBFFFFFFEFFFFFFFDFFFFF33
:1018FC00FFBFFFFFFFFEFFFFFFFDFFFFFFF7FFFF37
:10190C0002291FD00BD8A9B101291AD18369114919
:10191C000B408361836912021A43826111E003292F
:10192C000FD1C3690B490B40C361C36912021A433F
:10193C00C26106E0836970218B43836183691A431A
:10194C0082617047C36970218B43C361C3691A43B9
:10195C00C261F6E7FF8FFFFF02290BD004D839B123
:10196C00012906D1826304E0032902D1026400E05C
:10197C0042637047C263FCE702291FD00BD8A9B1A0
:10198C0001291AD1836911490B40836183691202C1
:10199C001A43826111E003290FD1C3690B490B4033
:1019AC00C361C36912021A43C26106E0836908214C
:1019BC008B43836183691A4382617047C369082131
:1019CC008B43C361C3691A43C261F6E7FFF7FFFF9C
:1019DC0010B544F20043C4F2000398420ED043F613
:1019EC000003C4F20103984207D140F20E30FFF716
:1019FC00AFF840F20E30FFF7B9F810BD40F21140CD
:101A0C00FFF7A6F840F21140FFF7B0F8F5E770B514
:101A1C0004000D0044F20043C4F20003984209D0C4
:101A2C0043F60003C4F20103984207D10520FFF7E7
:101A3C0067FA04E00220FFF763FA00E00020236855
:101A4C001B040DD5400069084118B1FBF5F14FF6A8
:101A5C00F0730B404908072001401943E16070BD49
:101A6C0069080918B1FBF5F14FF6FF752940E160E3
:101A7C00F5E70000026801239A4302600268034BF9
:101A8C001A40026003680B4303607047FFF9FFFFC5
:101A9C00026801239A4302600268034B1A400260F9
:101AAC0003680B4303607047FFEFFFFF02680123DD
:101ABC009A4302604268034B1A40426043680B43EE
:101ACC0043607047FFCFFFFF03680122134303609D
:101ADC007047026808239A43026003680B43036053
:101AEC007047026804239A43026003680B43036047
:101AFC00704740F2FF130B40836270478B091B1831
:101B0C001B681F221140CB40DB0701D50120704719
:101B1C000020FCE740F22503C2F2000301221A70F8
:101B2C00704710B50120FEF7C8FD00B910BD40F29A
:101B3C002403C2F2000301221A700120FEF7C8FD33
:101B4C00F4E77047704710B540F20040C4F2000053
:101B5C000121FFF78AFD012800D010BD40F20040A2
:101B6C00C4F200000121FFF78CFDF6E770477047C7
:101B7C007047704770B5931E222B15D80E0090FB42
:101B8C00F2F415006543451BE0B243F2D434C0F6C1
:101B9C000004FF232B40E45C330001361C7000284A
:101BAC00EDD10022327008E000230B7007E01A78A8
:101BBC00087818700A700131013B8B42F7D870BD60
:101BCC0030B587B004000D1C43F2FC31C0F60001A7
:101BDC00022201F03BFBE8B2102201A9FFF7CAFF79
:101BEC0001A8FEF795FA020001A9200001F02EFBD6
:101BFC00200007B030BDF0B51700931E222B16D86D
:101C0C00041E17DB0D00B4FBF2F013004343E31A80
:101C1C002600040043F2D430C0F60000C05C2B0058
:101C2C0001351870B742EED900222A700FE000235C
:101C3C000B700EE00A2AE5D12D230B7044420131C2
:101C4C00E0E71A78087818700A700131013B8B4272
:101C5C00F7D8F0BD30B587B004000D0043F2FC316D
:101C6C00C0F60001022201F0F1FA102201A92800AD
:101C7C00FFF7C1FF01A8FEF74BFA020001A92000F3
:101C8C0001F0E4FA200007B030BD10B586B00400B6
:101C9C0008000A2201A9FFF7AEFF01A8FEF738FAE7
:101CAC00020001A9200001F0D1FA200006B010BDFD
:101CBC0070B5931E222B14D80D00B0FBF2F4130058
:101CCC006343C31A0600200043F2D434C0F6000468
:101CDC00E45C2B0001351C70B242EED900222A7054
:101CEC0008E000230B7007E01A78087818700A7067
:101CFC000131013B8B42F7D870BD30B587B0040081
:101D0C000D0043F2FC31C0F60001022201F09EFAF4
:101D1C00102201A92800FFF7CBFF01A8FEF7F8F964
:101D2C00020001A9200001F091FA200007B030BD9B
:101D3C0070B5931E222B16D80E0090FBF2F41500F2
:101D4C006543451BA0B243F2D434C0F600044FF6F1
:101D5C00FF732B40E45C330001361C700028ECD17F
:101D6C000022327008E000230B7007E01A78087824
:101D7C0018700A700131013B8B42F7D870BD30B539
:101D8C0087B004000D1C43F2FC31C0F600010222A6
:101D9C0001F05CFAA8B2102201A9FFF7C9FF01A853
:101DAC00FEF7B6F9020001A9200001F04FFA20005D
:101DBC0007B030BDF0B5DE4657464E464546E0B559
:101DCC00BDB03AAC06220021200001F0BCFA01257E
:101DDC002580902200950123D20540F2115136A89E
:101DEC0000F0BAFB28AB00241C805C809C8042F67F
:101DFC000041C4F20101022301222AA801F07AF960
:101E0C0044F20001C4F20101022301222EA801F0C8
:101E1C0071F940F20041C4F200010223012232A800
:101E2C0001F068F941F20046C4F600060095402323
:101E3C00320040F2165123A800F015FE00948023C6
:101E4C00320040F216511EA800F00DFE40F2004682
:101E5C00C4F60006009440F20043320040F21251E6
:101E6C0018A800F095FD009440F60003320040F2F3
:101E7C00125112A800F08CFDE12243F60001C4F2CD
:101E8C000101520210A801F0D9F948F2A062C0F287
:101E9C00010245F20041C4F200010EA800F0CBFC97
:101EAC0044F24022C0F20F0243F20001C4F20101DD
:101EBC000CA800F099FF0B950BA800F0BCFA0AA82F
:101ECC0000F0FFFD08A91A23CB70173B0B710A33E6
:101EDC004B7104338B70033B4B7000230B70052349
:101EEC008B710AA800F03BFE40F20003C2F2000323
:101EFC001B6840F2E832B3FBF2F3013B8022520440
:101F0C00934216D24EF21002CEF2000253604EF6FD
:101F1C000051CEF200010B6A1B021B0AC020000606
:101F2C0003430B629460072111600394039B1BB164
:101F3C00FEE701230393F9E70122A1210EA800F08B
:101F4C00BDFC040043F20041C0F6000110A801F0F2
:101F5C0092F90500A020FFF709FE011C2800FFF7ED
:101F6C002FFE43F21846C0F60006310001F083F94B
:101F7C0005000120FFF7FAFD011C2800FFF720FEE9
:101F8C0043F22045C0F60005290001F074F9070062
:101F9C002000FFF7EBFD011C3800FFF711FE43F2A8
:101FAC003457C0F60007390001F065F90134E3B28B
:101FBC000122A0210EA800F046FC43F22441C0F6F9
:101FCC00000110A801F057F98046A020FFF7CEFDC4
:101FDC00011C4046FFF7F4FD310001F04CF90600FE
:101FEC000120FFF7C3FD011C3000FFF7E9FD2900BC
:101FFC0001F041F905002000FFF7B9FD01002800B0
:10200C00FFF728FE390001F036F90CA800F0B1FA00
:10201C00050043F23C41C0F6000110A801F02BF979
:10202C0004002800FFF7A4FD01002000FFF765FE67
:10203C00390001F020F9162102AB9C4661440023C3
:10204C000B804BF6EF620CA800F042FB98B1012814
:10205C0019D0022831D040F2E833069306A800F0DC
:10206C0060FB039C40F20009C8464B4602934D4668
:10207C004F464E4673E043F25441C0F6000110A89F
:10208C0001F0F9F8E7E743F26C41C0F6000110A843
:10209C0001F0F1F80400162302AA94466344188850
:1020AC00FFF767FD011C2000FFF769FE43F2345176
:1020BC00C0F6000101F0DFF8CDE743F29041C0F625
:1020CC00000110A801F0D7F8C5E7029B013B99B2BB
:1020DC0002913AAA13885B1A9BB2138021B11BB1EF
:1020EC0040F2002293420CD93AAB00221A8040F203
:1020FC000403C2F2000301321A7040F201090023FA
:10210C0002933AA98B884A88098828A800F0C6FC53
:10211C000026002F00D0FBE0002D00D025E118A8F0
:10212C0000F04CFC002800D075E112A800F046FC31
:10213C00002800D077E140F22403C2F200031B78A0
:10214C0063B140F22403C2F2000300221A7043F27E
:10215C001451C0F6000110A801F08DF8C04640F2F1
:10216C002503C2F200031B78002BF7D040F22503A5
:10217C00C2F2000300221A7001346423B4FBF3F2A0
:10218C0053439C4200D1012640F2F413B4FBF3F10B
:10219C004A01521A93005B189B009C4200D1012704
:1021AC0042F21073B4FBF3F253439C4200D101256D
:1021BC0042F20F739C4200D9039C002EA9D04B46CF
:1021CC00012B25D0022B60D0002B9AD13AAB0022E8
:1021DC005A809A8040F20403C2F200031B78002B51
:1021EC0000D172E70298411C89B23AAA138884463E
:1021FC0063449BB2138040F28F12934200D881E06B
:10220C0040F20403C2F2000300221A70029178E734
:10221C003AAB00221A809A8040F20403C2F2000307
:10222C001B78A3B10298411C89B23AAA5388844600
:10223C0063449BB2538040F28F12934264D940F2B4
:10224C000403C2F2000300221A70029159E7029BA8
:10225C00013B99B202913AAA53885B1A9BB2538004
:10226C0029B123B140F20022934200D849E73AAB9E
:10227C0000225A8040F20403C2F2000301321A70A9
:10228C0040F20209002302933BE73AAB00221A808A
:10229C005A8040F20403C2F200031B78A3B10298E7
:1022AC00411C89B23AAA9388844663449BB29380BA
:1022BC0040F28F12934229D940F20403C2F2000378
:1022CC0000221A7002911CE7029B013B99B2029109
:1022DC003AAA93885B1A9BB2938029B123B140F23E
:1022EC000022934200D80CE73AAB00229A8040F2CD
:1022FC000403C2F2000301321A7040F200090023F9
:10230C000293FEE60291FCE60291FAE60291F8E6EF
:10231C0023A800F0B3FB1EA800F0B0FB434601332A
:10232C00DBB2984643F2AC41C0F6000110A800F0B5
:10233C00A2FF4146FFF7A9FC43F2C841C0F60001D9
:10234C0000F099FF07004046FFF710FC011C380015
:10235C00FFF736FC43F23451C0F6000100F08BFF5E
:10236C0006A800F0F4F90027D6E60BA800F0A0F8B8
:10237C00050043F2CC41C0F6000110A800F07BFF31
:10238C002900FFF782FC43F2345AC0F6000A51468A
:10239C0000F071FF0AA800F03BFC010004AD07221D
:1023AC00280000F0C7FF43F2D841C0F6000110A886
:1023BC0000F061FFE978FFF768FC43F2EC4BC0F6E4
:1023CC00000B594600F057FF2979FFF75EFC594680
:1023DC0000F051FF6979FFF758FC43F2D441C0F685
:1023EC00000100F048FFA978FFF74FFC43F2F04BD7
:1023FC00C0F6000B594600F03EFF6978FFF745FC2C
:10240C00594600F038FF2978FFF73FFC514600F0A1
:10241C0032FF002583E643F2F441C0F6000110A818
:10242C0000F029FF81E643F20451C0F6000110A828
:10243C0000F021FF7FE610B5040040F21150FEF7CA
:10244C0079FB40F20960FEF775FB0620FEF7B2FB44
:10245C009020022300220321C005FEF799F9FDF715
:10246C0023FF002140F20010FDF758FF002102204D
:10247C00FDF754FF0020FDF797FF01210120FDF728
:10248C00A9FF2368012B0DD0E02109030120FEF7E1
:10249C0055F801210120FEF71FF8FDF70FFFFDF79E
:1024AC001DFF10BD032201210020FDF7BFFFEBE74C
:1024BC0010B50120FEF764F80220FEF77FF8012822
:1024CC00FAD10130FEF785F8FEF771F810BD70B542
:1024DC0005000088FEF72EFB40F20060FEF72AFB99
:1024EC00AB68012200216868FEF752F900240F2C1A
:1024FC0007D80123A340AA68134203D10134E4B2E4
:10250C00F5E700246868B8231B069C466044800AE3
:10251C00C0B22100FEF784FF0126A6402A7B0021D1
:10252C003000FEF75EF83000FEF7D2F83000FEF710
:10253C00BCF8012C06D9032C09D801210620FEF782
:10254C0099FA70BD01210520FEF794FAF9E70121F3
:10255C000720FEF78FFAF4E710B5040002A8007804
:10256C0021806260A36020732000FFF7B0FF200081
:10257C0010BDF0B5C64600B582B00500002100F0D4
:10258C003BFC9F21280000F05FFCFF21280000F09D
:10259C005BFC040001AF3870FF21280000F054FCF4
:1025AC0006007870FF21280000F04EFC8046B870C1
:1025BC000121280000F020FC200436023043434661
:1025CC00184302B080BCB846F0BD10B50400002121
:1025DC0000F012FC0621200000F036FC0121200046
:1025EC0000F00AFC10BD70B504000021200000F0C2
:1025FC0003FC0521200000F027FCFF21200000F047
:10260C0023FC05000121200000F0F6FBEB07ECD4C5
:10261C0070BDF8B505000C0017001E00FFF7D5FFC4
:10262C000021280000F0E8FB0221280000F00CFC3F
:10263C00210CC9B2280000F007FC210AC9B22800FD
:10264C0000F002FCE1B2280000F0FEFB002405E0E3
:10265C00395D280000F0F8FB0134A4B2B442F7D382
:10266C000121280000F0C8FB2800FFF7BCFFF8BDD3
:10267C00F0B5C64600B505000C0090461F000021C1
:10268C0000F0BAFB0321280000F0DEFB210CC9B2DC
:10269C00280000F0D9FB210AC9B2280000F0D4FBB5
:1026AC00E1B2280000F0D0FB002408E043461E19DC
:1026BC00FF21280000F0C8FB30700134A4B2BC42EA
:1026CC00F4D30121280000F097FB80BCB846F0BD84
:1026DC0070B582B005000C006B46DA8002230A004C
:1026EC000021FFF7C5FF22884FF6FF739A4202D0F4
:1026FC00012002B070BD6B469E1D022332000021EA
:10270C002800FFF786FF0223220000212800FFF794
:10271C00AFFF228833889A4201D00020E9E70220DB
:10272C00E7E710B50400FDF7D9FF23685801C01A7C
:10273C008000C0188300C01840F2E833B0FBF3F0FF
:10274C0080B20421FDF7E2FFFDF7D0FF10BD10B5FC
:10275C00FDF7D4FF10BD70B50400026845F20043CC
:10276C00C4F200039A4225D045F60003C4F20003DC
:10277C009A4224D0226845F20043C4F200039A42E4
:10278C0022D045F60003C4F200039A4236D0002250
:10279C0061682068FEF77CF8002300220021206885
:1027AC00FEF710F92068FEF732F920680121FEF7D8
:1027BC0015F970BD40F21570FEF7BCF9DAE740F27E
:1027CC001670FEF7B7F9D5E740F21250FEF7B2F9E2
:1027DC0040F20045C4F60005C02201212800FEF796
:1027EC002BF8C023012202212800FDF7D1FFC023C2
:1027FC00032201212800FDF7F2FFC8E740F2125036
:10280C00FEF798F940F20045C4F6000540F6004288
:10281C0001212800FEF710F840F6004301220221A6
:10282C002800FDF7B5FF40F60043032201212800E4
:10283C00FDF7D5FFABE710B5040001604260FFF770
:10284C008AFF200010BDF8B504000F0016001D0013
:10285C000068FEF7E1F840F200512068FEF7EDF851
:10286C000028F8D00222524239002068FEF7C6F840
:10287C0040F201512068FEF7E0F80028F8D040F251
:10288C0001512068FEF7E5F831002068FEF7D0F81A
:10289C0040F207512068FEF7D0F80028F8D0290044
:1028AC002068FEF7C5F840F207512068FEF7C5F81E
:1028BC000028F8D02068FEF7B5F8F8BD70B5040014
:1028CC000D0016000068FEF7A7F840F200512068D2
:1028DC00FEF7B3F80028F8D00222524229002068F3
:1028EC00FEF78CF840F201512068FEF7A6F800289C
:1028FC00F8D040F201512068FEF7ABF831002068A7
:10290C00FEF796F840F207512068FEF796F800287B
:10291C00F8D02068FEF780F840F200512068FEF7EE
:10292C008CF80028F8D0012229002068FEF766F800
:10293C0040F201512068FEF780F80028F8D040F2F0
:10294C0001512068FEF785F840F206512068FEF729
:10295C0074F80028F8D02068FEF76CF805002068A1
:10296C00FEF760F8280070BD10B5037B3BB9816899
:10297C004068FDF75AFF43425841C0B210BD816810
:10298C004068FDF752FF013843425841C0B2F5E7A9
:10299C0010B50400080002A9097820806260A360C9
:1029AC002173002323616361FEF7C4F8A36801223D
:1029BC0000216068FDF7ECFE200010BD10B504008E
:1029CC004369012B0ED0022B20D00BB1002010BD7F
:1029DC00FFF7CAFF18B1012363610020F7E700235A
:1029EC006361F4E7FFF7C0FF30B123690133236162
:1029FC00012363610020EAE72369132B03D800232A
:102A0C0063612361E3E702236361E0E70023436131
:102A1C0003610120DBE710B503000A000174406874
:102A2C0099681AB10122FDF7FBFE10BD0022FAE7EE
:102A3C0010B504000088FEF77DF8A368012201217F
:102A4C006068FDF7A5FEA368032200216068FDF70E
:102A5C00C6FEE368591E4B425941C9B2217420008D
:102A6C00FFF7D9FF10BD10B50400018042608360F0
:102A7C00029BC360FFF7DCFF200010BD10B5040003
:102A8C004068A168237C3BB10022FDF7C9FE237C82
:102A9C0001225340237410BD0122F6E710B5040047
:102AAC00018042808380083000F02FFB6188200079
:102ABC00183000F02AFBA1882000283000F025FBFC
:102ACC0010BD00B587B040F21C70FEF733F8FEF76E
:102ADC0027F8FEF759F8FEF761F840F60000FEF70C
:102AEC0001FA40F21C70FEF725F8FEF719F840F6D3
:102AFC000000FEF7F7F940F60000FEF75BF948BB63
:102B0C0040F60010FEF7EEF940F60010FEF752F911
:102B1C0040F20020FEF730F940F60F00FEF70AF8FD
:102B2C00FEF71AFB01A826230370233B43701033D6
:102B3C0083700E3BC3700D3303710023437183719B
:102B4C000361C3607F33038180334381FEF73AFB1B
:102B5C0007B000BD40F20010FEF70EF9DCE770B5CF
:102B6C0086B0CA786423B2FBF3F04343D31ADBB2CA
:102B7C000A22B3FBF2F42501A000001940001B1A35
:102B8C005BB22B4301A803700B79B3FBF2F52E015A
:102B9C00AC00641964001B1B5BB2334343704B796C
:102BAC00B3FBF2F52E01AC00641964001B1B5BB285
:102BBC00334383708B78B3FBF2F52E01AC006419B0
:102BCC0064001B1B5BB2334303714B78B3FBF2F510
:102BDC002E01AC00641964001B1B5BB233434371C0
:102BEC000B78B3FBF2F215019400A21852009B1A59
:102BFC005BB22B4383718B79C37000230361C36079
:102C0C007F33038180334381FEF7DCFA06B070BD5D
:102C1C0030B587B001AC2000FEF735FB21780B09ED
:102C2C009A009B185A000F231940521840F22800A2
:102C3C00C2F20000C27065782A0991005218510046
:102C4C001D4049190171A5782A09910052185100AB
:102C5C001D4049194171E278827125792A09910048
:102C6C00521851001D404919817065792A0991004B
:102C7C00521851001D4049194170A4792209910044
:102C8C00521851002340CB18037007B030BD30B53B
:102C9C0089B00400026843F20003C4F201039A42B3
:102CAC002DD043F60003C4F200039A422CD02268C4
:102CBC0043F20003C4F201039A422AD043F6000304
:102CCC00C4F200039A4257D001A8FEF718FB002368
:102CDC00029340F20412019240F20072039240F20D
:102CEC0000220492059306931033079301A92068E0
:102CFC00FEF710FB2068FEF755FB09B030BD40F223
:102D0C000C60FDF717FFD2E740F20E70FDF712FFD3
:102D1C00CDE740F21150FDF70DFF9025ED05A022F7
:102D2C0000212800FDF788FDA023002202212800A5
:102D3C00FDF72EFDA023032200212800FDF74FFDF7
:102D4C00402200212800FDF777FD402300220221BC
:102D5C002800FDF71DFD1023002201212800FDF79E
:102D6C0017FD1023032200212800FDF738FD102148
:102D7C002800FDF753FDA7E740F21250FDF7DAFEED
:102D8C0040F20045C4F60005282200212800FDF77A
:102D9C0053FD2823002202212800FDF7F9FC2823EB
:102DAC00032200212800FDF71AFD10220021280023
:102DBC00FDF742FD1023002202212800FDF7E8FC5C
:102DCC0041F20003002201212800FDF7E1FC41F251
:102DDC000003032200212800FDF701FD41F2000150
:102DEC002800FDF71BFD6FE710B504000160426081
:102DFC00FFF74DFF200010BD10B5026843F2000331
:102E0C00C4F201039A4206D043F60003C4F2000355
:102E1C009A420BD010BD012906D00022902010211F
:102E2C00C005FDF7FDFCF5E70122F7E7012909D004
:102E3C00002240F20040C4F6000041F20001FDF710
:102E4C00EFFCE7E70122F4E770B504000D00022166
:102E5C002068FEF7CCFA0028F9D0A9B22068FEF75A
:102E6C00A6FA01212068FEF7C2FA0028F9D02068E2
:102E7C00FEF7ACFAC0B270BD30B589B0040003687F
:102E8C0042F60042C4F20102934247D040F20042A3
:102E9C00C4F20002934246D044F20002C4F2010292
:102EAC00934245D02068FEF7F3FAA36893B12368E8
:102EBC0044F20002C4F2010293423ED040F20042BE
:102ECC00C4F20002934255D042F60042C4F2010211
:102EDC00934269D004AD2800FEF74AFB47232B80B0
:102EEC0000236B80AB80EB80626853019B1A9B00C4
:102EFC009B18DB00013B069300232B7329002068F1
:102F0C00FEF740FBA368002B69D1A368002B00D10E
:102F1C0099E02068FEF7A0FB09B030BD40F20B60D1
:102F2C00FDF708FEBEE740F20170FDF703FEB9E7BE
:102F3C0040F21060FDF7FEFDB4E740F21250FDF7D1
:102F4C00F9FD40F20045C4F6000544F200020121EF
:102F5C002800FDF771FC44F2000301220221280035
:102F6C00FDF716FC44F20003032200212800FDF7B4
:102F7C0036FCAFE740F21250FDF7DCFD40F20045A5
:102F8C00C4F60005102201212800FDF755FC102382
:102F9C00012202212800FDF7FBFB10230322002154
:102FAC002800FDF71CFC95E740F21150FDF7C2FD1F
:102FBC009025ED0540F2001202212800FDF73CFCA3
:102FCC0040F20013012202212800FDF7E1FB40F240
:102FDC000013032200212800FDF701FC7AE701A869
:102FEC00FEF762FB01236A4693800023138101AA3A
:102FFC0000212068FEF760FBE26800212068FEF7E4
:10300C00ABFC602200212068FEF77AFC082200212C
:10301C002068FEF7B1FC206842F60043C4F20103BD
:10302C0098420CD040F20043C4F20003984206D000
:10303C0044F20003C4F20103984200D065E7012179
:10304C00FEF722FB61E701212068FEF71AFB012144
:10305C002068FEF706FB236842F60042C4F2010228
:10306C00934229D040F20042C4F20002934228D08D
:10307C0041F20002C4F20002934227D042F2000255
:10308C00C4F20002934226D044F20002C4F20102C0
:10309C00934225D044F20042C4F20102934224D060
:1030AC0044F60002C4F20102934200D031E7012140
:1030BC001620FDF7DFFC2CE701210D20FDF7DAFCD3
:1030CC0027E701211020FDF7D5FC22E70121112073
:1030DC00FDF7D0FC1DE701211320FDF7CBFC18E711
:1030EC0001211420FDF7C6FC13E701211520FDF783
:1030FC00C1FC0EE710B50400016042608360002340
:10310C00C360FFF7B9FE200010BD10B50A00C16006
:10311C00836803B910BD00680021FEF71DFCF9E7B8
:10312C0070B50400026843F60003C4F201039A422E
:10313C0024D044F20043C4F200039A4251D02068D8
:10314C00FEF746FC61682068FEF761FC00212068F0
:10315C00FEF79EFC00212068FEF7A8FC00212068E9
:10316C00FEF788FC08212068FEF7B3FC04212068D8
:10317C00FEF7B7FC2068FEF7A7FC70BD40F20E60AE
:10318C00FDF7D8FC40F21150FDF7D4FC9025ED056D
:10319C0040F2002201212800FDF74EFB40F20042D4
:1031AC0001212800FDF748FB40F2002301220221F7
:1031BC002800FDF7EDFA40F200230322002128003D
:1031CC00FDF70DFB40F20043012202212800FDF720
:1031DC00DFFA40F20043032200212800FDF7FFFA3A
:1031EC00ADE740F21170FDF7A5FC40F21150FDF770
:1031FC00A1FC9025ED05042201212800FDF71CFB04
:10320C00082201212800FDF717FB042301220221CB
:10321C002800FDF7BDFA0423032200212800FDF746
:10322C00DEFA0823012202212800FDF7B1FA082357
:10323C00032200212800FDF7D2FA80E710B5040024
:10324C0001604260FFF76CFF200010BDF8B5040070
:10325C000F0016000025B5420CD240F20771206811
:10326C00FEF74CFC0028F8D0795D2068FEF741FC95
:10327C000135F0E7F8BD70B504000D000800FCF74F
:10328C0047FF020029002000FFF7E0FF200070BD7F
:10329C000D488546002103E00C4B5B58435004312C
:1032AC000B480C4B42189A42F6D30B4A02E000230F
:1032BC0013600432094B9A42F9D3FCF797FF00F0E4
:1032CC0011F8FEF777FDFEE7300C002040350008C2
:1032DC000000002008000020080000203000002022
:1032EC00FEE7000070B500250E4C0F4BE41AA4103D
:1032FC00A54209D1002500F02FF80C4C0C4BE41A18
:10330C00A410A54207D170BD074AAB009B181B68DF
:10331C0098470135ECE7064AAB009B181B689847A9
:10332C000135EEE738350008383500083C35000823
:10333C0038350008002310B59A4200D110BDCC5C82
:10334C00C4540133F8E703008218934200D170474C
:10335C0019700133F9E70000F8B5C046F8BC08BC99
:10336C009E467047F8B5C046F8BC08BC9E467047F0
:10337C000000000000000000010203040607080919
:10338C000000000001020304F20B00080C0C000802
:10339C00280C0008480C0008720C0008980C000857
:1033AC00C80C0008EE0C00081E0D0008440D0008A7
:1033BC0000100008FE0F0008041000080810000898
:1033CC000C100008A2100008303132333435363777
:1033DC0038396162636465666768696A6B6C6D6EC7
:1033EC006F707172737475767778797A000000005B
:1033FC0030780000454550524F4D20526561643A7B
:10340C002044657669636520000000002C2052651D
:10341C0067200000203D2000454550524F4D20575D
:10342C00726974653A204465766963652000000012
:10343C0053504920466C617368204A4544454320EB
:10344C0049443A2000000000464C41534820546542
:10345C0073743A204661696C65640D0A00000000C3
:10346C00464C41534820546573743A20526561644C
:10347C0020537563636573732C2044617461203D24
:10348C0020000000464C41534820546573743A2088
:10349C00577269746520537563636573730D0A0005
:1034AC0048656C6C6F2C204744333245323378219D
:1034BC0020636F756E743A2000000000207C2000A1
:1034CC004144432056616C3A2000000043757272EF
:1034DC00656E74205254432054696D653A20000087
:1034EC002D0000003A0000004B65793120507265C8
:1034FC00737365642E0D0A004B657932205072652A
:10350C00737365642E0D0A0045585449204C696E3E
:10351C0065203020496E7465727275707420547217
:0C352C00696767657265642E0D0A000077
:04353800F90000088E
:04353C00CD000008B6
:0835400000A24A040100000092
:040000050800329D20
:00000001FF
